:020000040800F2
:100000000000012071060008C1060008C1060008B2
:10001000C1060008C1060008C10600080000000073
:10002000000000000000000000000000C106000801
:10003000C106000800000000C1060008C106000853
:10004000C1060008C1060008C1060008C106000874
:10005000C1060008C1060008C1060008C106000864
:10006000C1060008C1060008C1060008C106000854
:10007000C1060008C1060008C1060008C106000844
:10008000C1060008C1060008C10600080000000003
:10009000000000000000000000000000C106000891
:1000A000C1060008C1060008C1060008C106000814
:1000B000C1060008C1060008C1060008C106000804
:1000C000C1060008C1060008C1060008C1060008F4
:1000D000C1060008C1060008C106000800000000B3
:1000E000C1060008C1060008C106000800000000A3
:1000F000000000000000000000000000C106000831
:1001000000000000C1060008C1060008C106000882
:1001100000000000000000000000000000000000DF
:10012000D9050008C1060008C1060008C10600087C
:10013000C1060008000000000000000000000000F0
:10014000000000000000000000000000C1060008E0
:10015000C1060008C1060008C1060008C106000863
:10016000C1060008C10600080000000000000000F1
:10017000000000000000000000000000000000007F
:1001800000000000C10600080000000000000000A0
:04019000C10600089C
:1001940010B5054C237833B9044B13B10448AFF3BD
:1001A40000800123237010BD6800002000000000BF
:1001B4000C07000808B5034B1BB103490348AFF310
:1001C400008008BD000000006C0000200C0700083F
:1001D40080B400AF074B1B68064A43F480031360E6
:1001E400054B4FF080721A6000BFBD465DF8047B7A
:1001F400704700BF3038024004E100E080B500AF32
:10020400064B1B6803F02003002B04D001220521B8
:10021400002000F079F900BF80BD00BF00640240F7
:1002240080B584B000AFF860B9607A60FB70344B7D
:1002340000221A60324B1B683A7E92011146304A02
:100244000B4313602F4AFB6813602F4ABB6813608B
:100254002E4A7B6813602A4B1B68FA78D202114637
:10026400274A0B431360264B1B68FA785203114646
:10027400234A0B431360224B1B68214A43F4C06397
:1002840013603B7F002B1AD13B7E022B17D0204BEF
:100294001B681F4A23F004031360194B1B68184A98
:1002A40023F4C0031360164B1B68154A23F0C07374
:1002B400136001220721002000F026F91BE001222F
:1002C4000621002000F020F9114B1B68104A43F06E
:1002D400040313600A4B1B683A7F52051146084A0F
:1002E4000B431360064B1B683A7FD2051146044A40
:1002F4000B43136000BF00BF1037BD4680BD00BF75
:1003040010640240186402401C64024014640240F9
:100314002464024080B400AF094B1B68084A43F0D0
:1003240010031360074B00221A60054B1B68044A34
:1003340043F00103136000BFBD465DF8047B7047C2
:10034400106402400864024080B483B000AF786057
:100354007B68002B03D07B68012B07D00DE00A4B90
:100364001B68094A43F00103136006E0064B1B684F
:10037400054A43F00203136000BF00BF0C37BD46BB
:100384005DF8047B704700BF3038024090B482B0FF
:1003940000AF7860084611461A460346FB700B46C8
:1003A400BB7013467B7057497A6813469B0013440D
:1003B400DB000B441B681968FB785B00032202FA1C
:1003C40003F3DB431C464F487A6813469B001344EF
:1003D400DB0003441B6801EA04021A6049497A6895
:1003E40013469B001344DB000B441B681968BA785E
:1003F400FB785B0002FA03F31C4642487A68134612
:100404009B001344DB0003441B6841EA04021A60A6
:100414003C497A6813469B001344DB000B440433C5
:100424001B681968FB78012202FA03F3DB431C46BC
:1004340034487A6813469B001344DB0003440433B6
:100444001B6801EA04021A602E497A6813469B006D
:100454001344DB000B4404331B6819687B7803F0F6
:100464000102FB7802FA03F31C4626487A68134615
:100474009B001344DB00034404331B6841EA040279
:100484001A6020497A6813469B001344DB000B442E
:1004940008331B681968FB785B00032202FA03F334
:1004A400DB431C4617487A6813469B001344DB0061
:1004B400034408331B6801EA04021A6011497A688C
:1004C40013469B001344DB000B4408331B68196874
:1004D4007B785B1003F00302FB785B0002FA03F302
:1004E4001C4608487A6813469B001344DB00034407
:1004F40008331B6841EA04021A6000BF0837BD468E
:1005040090BC70470000002090B484B000AF7860C5
:100514000B46FB701346BB702D497A6813469B004B
:100524001344DB000B441B681B68FA785200032158
:1005340001FA02F21A40FB785B0022FA03F3012B62
:100544003DD1BB78002B1BD021497A6813469B0010
:100554001344DB000B4414331B681968FB78012235
:1005640002FA03F31C461A487A6813469B001344A4
:10057400DB00034414331B6841EA04021A601BE0E5
:1005840013497A6813469B001344DB000B4414336D
:100594001B681968FB78012202FA03F3DB431C464B
:1005A4000B487A6813469B001344DB00034414335E
:1005B4001B6801EA04021A600023FB7301E00123B3
:1005C400FB73FB7B18461037BD4690BC704700BFD9
:1005D4000000002080B500AFFFF710FE034B1B683E
:1005E400024A43F01003136000BF80BD0864024058
:1005F40080B582B002AF0020FFF7A6FE00230122DF
:1006040005210020FFF7C2FE00230122062100205D
:10061400FFF7BCFE0023012207210020FFF7B6FEEE
:10062400FFF7D6FD002301930223009302230A223D
:1006340003490448FFF7F4FDFFF76CFEFEE700BF33
:10064400840000205000002080B400AF064BD3F893
:100654008830054A43F47003C2F8883000BFBD46B1
:100664005DF8047B704700BF00ED00E0DFF834D094
:100674000D480E490E4A002302E0D458C4500433F6
:10068400C4188C42F9D30B4A0B4C002301E01360CD
:100694000432A242FBD3FFF7D7FF00F011F8FFF7B3
:1006A400A7FF704700000120000000206800002020
:1006B4002C070008680000209C000020FEE70000D2
:1006C40070B50D4D0D4C641BA4100026A64209D133
:1006D4000B4D0C4C00F018F8641BA4100026A64225
:1006E40005D170BD55F8043B98470136EEE755F83F
:1006F400043B98470136F2E7240700082407000862
:100704002407000828070008F8B500BFF8BC08BC97
:100714009E467047F8B500BFF8BC08BC9E467047BB
:04072400B90100080F
:04072800950100082F
:10072C0000000240040002400C000240080002409D
:10073C001000024014000240180002401C0002404D
:10074C002000024024000240000402400404024045
:10075C000C0402400804024010040240140402403D
:10076C00180402401C0402402004024024040240ED
:10077C000100000001000000010000000100000069
:08078C00010000000100000063
:040000050800067178
:00000001FF
