:020000040800F2
:100000000000012079080008C9080008C908000894
:10001000C9080008C9080008C90800080000000055
:10002000000000000000000000000000C9080008F7
:10003000C908000800000000C9080008C908000835
:10004000C9080008C9080008C9080008C90800084C
:10005000C9080008C9080008C9080008C90800083C
:10006000C9080008C9080008C9080008C90800082C
:10007000C9080008C9080008C9080008C90800081C
:10008000C9080008C9080008C908000800000000E5
:10009000000000000000000000000000C908000887
:1000A000C9080008C9080008C9080008C9080008EC
:1000B000C9080008C9080008C9080008C9080008DC
:1000C000C9080008C9080008C9080008C9080008CC
:1000D000C9080008C9080008C90800080000000095
:1000E000C9080008C9080008C90800080000000085
:1000F000000000000000000000000000C908000827
:1001000000000000C9080008C9080008C908000864
:1001100000000000000000000000000000000000DF
:100120005D070008C9080008C9080008C9080008D8
:10013000C9080008000000000000000000000000E6
:10014000000000000000000000000000C9080008D6
:10015000C9080008C9080008C9080008C90800083B
:10016000C9080008C90800080000000000000000DD
:10017000000000000000000000000000000000007F
:1001800000000000C9080008000000000000000096
:04019000C908000892
:1001940010B5054C237833B9044B13B10448AFF3BD
:1001A40000800123237010BDA00000200000000087
:1001B4001409000808B5034B1BB103490348AFF306
:1001C400008008BD00000000A400002014090008FD
:1001D40080B483B000AF7860124A7B6813607B6898
:1001E400002B03D07B68012B0BD015E00E4B1B6852
:1001F4000D4A43F4001313600C4B4FF400621A6071
:100204000AE0094B1B68084A43F480031360084B57
:100214004FF080721A6000BF00BF0C37BD465DF816
:10022400047B7047BC0000203038024000E100E04D
:1002340004E100E080B400AF144B1A68144913467B
:100244009B001344DB000B4408331B6819680F4BF5
:100254001A680F4813469B001344DB000344083319
:100264001B6841F010021A60084B1A6808491346CB
:100274009B001344DB000B441B681B6803F0200342
:100284001846BD465DF8047B704700BFBC000020E3
:100294000000002090B484B000AFF860B9607A60C8
:1002A400FB706A4B1A686A4913469B001344DB00CF
:1002B4000B4410331B6800221A60644B1A686449AB
:1002C40013469B001344DB000B4410331B6819686E
:1002D4003B7E9B011C465D4B1A685D4813469B00A0
:1002E4001344DB00034410331B6841EA04021A6020
:1002F400564B1A68564913469B001344DB000B44C3
:1003040018331B68FA681A60504B1A685049134630
:100314009B001344DB000B441C331B68BA681A604F
:100324004A4B1A684A4913469B001344DB000B44AA
:1003340014331B687A681A60444B1A68444913469C
:100344009B001344DB000B4410331B681968FB78D3
:10035400DB021C463D4B1A683D4813469B00134480
:10036400DB00034410331B6841EA04021A60374B74
:100374001A68374913469B001344DB000B441033BF
:100384001B681968FB785B031C46304B1A683048BD
:1003940013469B001344DB00034410331B6841EAFB
:1003A40004021A60294B1A68294913469B00134416
:1003B400DB000B4410331B681968244B1A6824486B
:1003C40013469B001344DB00034410331B6841F4C1
:1003D400C0621A601D4B1A681D4913469B001344E2
:1003E400DB000B4410331B6819683B7F5B051C461C
:1003F400164B1A68164813469B001344DB0003444B
:1004040010331B6841EA04021A60104B1A68104941
:1004140013469B001344DB000B4410331B6819681C
:100424003B7FDB051C46094B1A68094813469B00B1
:100434001344DB00034410331B6841EA04021A60CE
:1004440000BF1037BD4690BC704700BFBC00002001
:100454000000002080B400AF1A4B1A681A491346F2
:100464009B001344DB000B4410331B681968154BC5
:100474001A68154813469B001344DB0003441033E9
:100484001B6841F010021A600E4B1A680E4913469D
:100494009B001344DB000B4410331B681968094BA1
:1004A4001A68094813469B001344DB0003441033C5
:1004B4001B6841F001021A6000BFBD465DF8047B71
:1004C400704700BFBC0000200000002080B483B04F
:1004D40000AF78607B68002B03D07B68012B07D0CA
:1004E4000DE00A4B1B68094A43F00103136006E060
:1004F400064B1B68054A43F00203136000BF00BFAC
:100504000C37BD465DF8047B704700BF30380240AD
:1005140090B482B000AF7860084611461A4603468C
:10052400FB700B46BB7013467B7057497A681346C1
:100534009B001344DB000B441B681968FB785B00C9
:10054400032202FA03F3DB431C464F487A6813463E
:100554009B001344DB0003441B6801EA04021A6095
:1005640049497A6813469B001344DB000B441B681B
:100574001968BA78FB785B0002FA03F31C46424818
:100584007A6813469B001344DB0003441B6841EA6A
:1005940004021A603C497A6813469B001344DB004A
:1005A4000B4404331B681968FB78012202FA03F335
:1005B400DB431C4634487A6813469B001344DB0033
:1005C400034404331B6801EA04021A602E497A6862
:1005D40013469B001344DB000B4404331B68196867
:1005E4007B7803F00102FB7802FA03F31C462648E9
:1005F4007A6813469B001344DB00034404331B68EE
:1006040041EA04021A6020497A6813469B001344A5
:10061400DB000B4408331B681968FB785B0003227A
:1006240002FA03F3DB431C4617487A6813469B001F
:100634001344DB00034408331B6801EA04021A6014
:1006440011497A6813469B001344DB000B440833BA
:100654001B6819687B785B1003F00302FB785B006E
:1006640002FA03F31C4608487A6813469B001344B5
:10067400DB00034408331B6841EA04021A6000BF2C
:100684000837BD4690BC70475000002090B484B039
:1006940000AF78600B46FB701346BB702D497A6837
:1006A40013469B001344DB000B441B681B68FA7859
:1006B4005200032101FA02F21A40FB785B0022FA8D
:1006C40003F3012B3DD1BB78002B1BD021497A6861
:1006D40013469B001344DB000B4414331B68196856
:1006E400FB78012202FA03F31C461A487A6813467F
:1006F4009B001344DB00034414331B6841EA0402E7
:100704001A601BE013497A6813469B001344DB000C
:100714000B4414331B681968FB78012202FA03F3B3
:10072400DB431C460B487A6813469B001344DB00EA
:10073400034414331B6801EA04021A600023FB73A8
:1007440001E00123FB73FB7B18461037BD4690BCC8
:10075400704700BF5000002080B582B000AFFFF7A3
:1007640069FD78607B68002B0CD0084BD3F88C2192
:10077400074BD3F88C319A4204D101220521002081
:10078400FFF784FF00BF0837BD4680BD500200203C
:10079400C000002080B584B002AF00237B600BE072
:1007A4007B680133642202FB03F227497B6841F82A
:1007B40023207B6801337B607B68632BF0DD00239F
:1007C4003B6007E0214A3B68002142F823103B6864
:1007D40001333B603B68632BF4DD0020FFF776FEBA
:1007E4000023012205210020FFF792FE00230122AD
:1007F40006210020FFF78CFE0023012207210020A0
:10080400FFF786FE0023012208210020FFF780FE67
:100814000023012209210020FFF77AFE0023012290
:100824000A210020FFF774FE0120FFF7D1FC00230A
:100834000193022300930223642204490248FFF730
:1008440029FDFFF707FEFEE750020020C00000204C
:1008540080B400AF064BD3F88830054A43F47003E4
:10086400C2F8883000BFBD465DF8047B704700BF06
:1008740000ED00E0DFF834D00D480E490E4A0023A5
:1008840002E0D458C4500433C4188C42F9D30B4A40
:100894000B4C002301E013600432A242FBD3FFF7A8
:1008A400D7FF00F011F8FFF775FF70470000012033
:1008B40000000020A000002034090008A00000204F
:1008C400E0030020FEE7000070B50D4D0D4C641BE5
:1008D400A4100026A64209D10B4D0C4C00F018F8C8
:1008E400641BA4100026A64205D170BD55F8043B34
:1008F40098470136EEE755F8043B98470136F2E78E
:100904002C0900082C0900082C09000830090008EB
:10091400F8B500BFF8BC08BC9E467047F8B500BFE8
:08092400F8BC08BC9E467047B8
:04092C00B901000805
:040930009501000825
:100934000060024004600240086002400C60024013
:100944001060024014600240186002401C600240C3
:1009540020600240246002400064024004640240BB
:10096400086402400C6402401064024014640240B3
:10097400186402401C640240206402402464024063
:1009840000000240040002400C0002400800024043
:100994001000024014000240180002401C000240F3
:1009A40020000240240002400004024004040240EB
:1009B4000C040240080402401004024014040240E3
:1009C400180402401C040240200402402404024093
:04000005080008796E
:00000001FF
