:020000040800F2
:1000000000000120F108000841090008410900082A
:1000100041090008410900084109000800000000EA
:10002000000000000000000000000000410900087E
:1000300041090008000000004109000841090008CA
:100040004109000841090008410900084109000868
:100050004109000841090008410900084109000858
:100060004109000841090008410900084109000848
:100070004109000841090008410900084109000838
:10008000410900084109000841090008000000007A
:10009000000000000000000000000000410900080E
:1000A0004109000841090008410900084109000808
:1000B00041090008410900084109000841090008F8
:1000C00041090008410900084109000841090008E8
:1000D000410900084109000841090008000000002A
:1000E000410900084109000841090008000000001A
:1000F00000000000000000000000000041090008AE
:1001000000000000410900084109000841090008F9
:1001100000000000000000000000000000000000DF
:100120006908000841090008410900084109000860
:10013000410900080000000000000000000000006D
:10014000000000000000000000000000410900085D
:100150004109000841090008410900084109000857
:1001600041090008410900080000000000000000EB
:10017000000000000000000000000000000000007F
:10018000000000004109000800000000000000001D
:040190004109000819
:1001940010B5054C237833B9044B13B10448AFF3BD
:1001A40000800123237010BDB8000020000000006F
:1001B4008C09000808B5034B1BB103490348AFF38E
:1001C400008008BD00000000BC0000208C0900086D
:1001D40080B483B000AF7860124A7B6813607B6898
:1001E400002B03D07B68012B0BD015E00E4B1B6852
:1001F4000D4A43F4001313600C4B4FF400621A6071
:100204000AE0094B1B68084A43F480031360084B57
:100214004FF080721A6000BF00BF0C37BD465DF816
:10022400047B7047D40000203038024000E100E035
:1002340004E100E080B500AF164B1A681649134676
:100244009B001344DB000B441B681B6803F0200372
:10025400002B04D001220521002000F09DFA0D4B53
:100264001A680D4913469B001344DB000B44083302
:100274001B681968074B1A68074813469B00134408
:10028400DB00034408331B6841F010021A6000BF0E
:1002940080BD00BFD40000200000002090B585B0D0
:1002A40000AFF860B9607A60FB70A54B1A68A54985
:1002B40013469B001344DB000B4410331B680022DD
:1002C4001A609F4B1A689F4913469B001344DB0036
:1002D4000B4410331B68196897F820309B011C46A7
:1002E400974B1A68974813469B001344DB0003445A
:1002F40010331B6841EA04021A60914B1A68914951
:1003040013469B001344DB000B4418331B68FA6844
:100314001A608B4B1A688B4913469B001344DB000D
:100324000B441C331B68BA681A60854B1A688549EC
:1003340013469B001344DB000B4414331B687A6898
:100344001A607F4B1A687F4913469B001344DB00F5
:100354000B4410331B681968FB78DB021C46784B8E
:100364001A68784813469B001344DB000344103397
:100374001B6841EA04021A60714B1A6871491346FA
:100384009B001344DB000B4410331B681968FB7893
:100394005B031C466A4B1A686A4813469B00134465
:1003A400DB00034410331B6841EA04021A60644B07
:1003B4001A68644913469B001344DB000B44103352
:1003C4001B6819685E4B1A685E4813469B00134409
:1003D400DB00034410331B6841F4C0621A6097F8D1
:1003E4002430002B51D197F82030022B4DD0544BA0
:1003F4001A68544913469B001344DB000B4424330E
:100404001B6819684E4B1A684E4813469B001344E8
:10041400DB00034424331B6821F004021A60484BB8
:100424001A68484913469B001344DB000B441033FD
:100434001B681968424B1A68424813469B001344D0
:10044400DB00034410331B6821F4C0021A603C4BE8
:100454001A683C4913469B001344DB000B441033D9
:100464001B681968364B1A68364813469B001344B8
:10047400DB00034410331B6821F0C0721A600122B0
:100484000721002000F088F955E001220621002010
:1004940000F082F92A4B1A682A4913469B00134438
:1004A400DB000B4424331B681968254B1A68254864
:1004B40013469B001344DB00034424331B6841F0C0
:1004C40004021A601E4B1A681E4913469B0013440B
:1004D400DB000B4410331B68196897F824305B0564
:1004E4001C46174B1A68174813469B001344DB003D
:1004F400034410331B6841EA04021A60104B1A6863
:10050400104913469B001344DB000B4410331B6853
:10051400196897F82430DB051C46094B1A6809480A
:1005240013469B001344DB00034410331B6841EA69
:1005340004021A6000BF00BF1437BD4690BD00BF5F
:10054400D40000200000002080B400AF204B1A68C3
:10055400204913469B001344DB000B4410331B68F3
:1005640019681B4B1A681B4813469B001344DB0095
:10057400034410331B6841F010021A60144B1A68CC
:10058400144913469B001344DB000B4408331B68D7
:1005940000221A600E4B1A680E4913469B0013443E
:1005A400DB000B4410331B681968094B1A680948AF
:1005B40013469B001344DB00034410331B6841F0D3
:1005C40001021A6000BFBD465DF8047B704700BF9E
:1005D400D40000200000002080B483B000AF786015
:1005E4007B68002B03D07B68012B07D00DE00A4BFE
:1005F4001B68094A43F00103136006E0064B1B68BD
:10060400054A43F00203136000BF00BF0C37BD4628
:100614005DF8047B704700BF3038024090B482B06C
:1006240000AF7860084611461A460346FB700B4635
:10063400BB7013467B7057497A6813469B0013447A
:10064400DB000B441B681968FB785B00032202FA89
:1006540003F3DB431C464F487A6813469B0013445C
:10066400DB0003441B6801EA04021A6049497A6802
:1006740013469B001344DB000B441B681968BA78CB
:10068400FB785B0002FA03F31C4642487A6813467F
:100694009B001344DB0003441B6841EA04021A6014
:1006A4003C497A6813469B001344DB000B44043333
:1006B4001B681968FB78012202FA03F3DB431C462A
:1006C40034487A6813469B001344DB000344043324
:1006D4001B6801EA04021A602E497A6813469B00DB
:1006E4001344DB000B4404331B6819687B7803F064
:1006F4000102FB7802FA03F31C4626487A68134683
:100704009B001344DB00034404331B6841EA0402E6
:100714001A6020497A6813469B001344DB000B449B
:1007240008331B681968FB785B00032202FA03F3A1
:10073400DB431C4617487A6813469B001344DB00CE
:10074400034408331B6801EA04021A6011497A68F9
:1007540013469B001344DB000B4408331B681968E1
:100764007B785B1003F00302FB785B0002FA03F36F
:100774001C4608487A6813469B001344DB00034474
:1007840008331B6841EA04021A6000BF0837BD46FB
:1007940090BC70475000002090B484B000AF7860E3
:1007A4000B46FB701346BB702D497A6813469B00B9
:1007B4001344DB000B441B681B68FA7852000321C6
:1007C40001FA02F21A40FB785B0022FA03F3012BD0
:1007D4003DD1BB78002B1BD021497A6813469B007E
:1007E4001344DB000B4414331B681968FB780122A3
:1007F40002FA03F31C461A487A6813469B00134412
:10080400DB00034414331B6841EA04021A601BE052
:1008140013497A6813469B001344DB000B441433DA
:100824001B681968FB78012202FA03F3DB431C46B8
:100834000B487A6813469B001344DB0003441433CB
:100844001B6801EA04021A600023FB7301E0012320
:10085400FB73FB7B18461037BD4690BC704700BF46
:100864005000002080B500AFFFF7E4FC00BF80BD5E
:1008740080B582B002AF0020FFF7AEFE0023012254
:1008840005210020FFF7CAFE0023012206210020D3
:10089400FFF7C4FE0023012207210020FFF7BEFE5C
:1008A4000120FFF795FC0023019302230093022308
:1008B4000A2203490348FFF7F1FCFFF745FEFEE770
:1008C400D8000020A000002080B400AF064BD3F86D
:1008D4008830054A43F47003C2F8883000BFBD462F
:1008E4005DF8047B704700BF00ED00E0DFF834D012
:1008F4000D480E490E4A002302E0D458C450043374
:10090400C4188C42F9D30B4A0B4C002301E013604A
:100914000432A242FBD3FFF7D7FF00F011F8FFF730
:10092400A7FF70470000012000000020B80000204D
:10093400AC090008B8000020F0000020FEE7000029
:1009440070B50D4D0D4C641BA4100026A64209D1B0
:100954000B4D0C4C00F018F8641BA4100026A642A2
:1009640005D170BD55F8043B98470136EEE755F8BC
:10097400043B98470136F2E7A4090008A4090008DB
:10098400A4090008A8090008F8B500BFF8BC08BC11
:100994009E467047F8B500BFF8BC08BC9E46704739
:0409A400B90100088D
:0409A80095010008AD
:1009AC000060024004600240086002400C6002409B
:1009BC001060024014600240186002401C6002404B
:1009CC002060024024600240006402400464024043
:1009DC00086402400C64024010640240146402403B
:1009EC00186402401C6402402064024024640240EB
:1009FC0000000240040002400C00024008000240CB
:100A0C001000024014000240180002401C0002407A
:100A1C002000024024000240000402400404024072
:100A2C000C0402400804024010040240140402406A
:100A3C00180402401C04024020040240240402401A
:100A4C000100000001000000010000000100000096
:080A5C00010000000100000090
:04000005080008F1F6
:00000001FF
